{
  "contractName": "normal",
  "abi": [
    {
      "inputs": [
        {
          "name": "b",
          "type": "uint256"
        }
      ],
      "payable": false,
      "stateMutability": "nonpayable",
      "type": "constructor"
    },
    {
      "constant": false,
      "inputs": [],
      "name": "statechange",
      "outputs": [],
      "payable": false,
      "stateMutability": "nonpayable",
      "type": "function"
    },
    {
      "constant": true,
      "inputs": [],
      "name": "value",
      "outputs": [
        {
          "name": "_a",
          "type": "uint256"
        }
      ],
      "payable": false,
      "stateMutability": "view",
      "type": "function"
    }
  ],
  "bytecode": "0x608060405234801561001057600080fd5b506040516020806101358339810180604052602081101561003057600080fd5b8101908080519060200190929190505050806000819055505060de806100576000396000f3fe6080604052600436106049576000357c0100000000000000000000000000000000000000000000000000000000900463ffffffff1680633fa4f24514604e578063e869e140146076575b600080fd5b348015605957600080fd5b506060608a565b6040518082815260200191505060405180910390f35b348015608157600080fd5b5060886093565b005b60008054905090565b60056000541015151560a457600080fd5b60056000540260008190555056fea165627a7a72305820fdc871cf4cf01c5dada3a6efe5bfd35a1f0ce2ab60d44f6e53bc33f51ff4d7070029",
  "source": "pragma solidity>=0.4.19;\n\ncontract normal{\n    uint256 a;\n    \n    mapping (address => uint256) something;\n    \n    constructor(uint256 b) public{\n        a = b;\n    }\n    \n    function statechange() public {\n    \trequire(a >= 5);\n    \ta = a*5;\n    }\n\n    function value() public view returns (uint256 _a) {\n        return a;\n    }\n}",
  "sourcePath": "/home/aman/Desktop/new/poi/fosterfuzz/sampleProject/contracts/normal.sol",
  "compiler": {
    "name": "solc",
    "version": "0.5.0+commit.1d4f565a.Emscripten.clang"
  },
  "schemaVersion": "3.0.9",
  "updatedAt": "2019-05-18T20:32:40.895Z",
  "devdoc": {
    "methods": {}
  },
  "userdoc": {
    "methods": {}
  }
}